:020000040800F2
:100000000000032009080008CD070008CF070008FA
:10001000D1070008D3070008D5070008000000003A
:10002000000000000000000000000000D7070008EA
:10003000D907000800000000DB070008DD07000802
:10004000590800085908000859080008590800080C
:1000500059080008590800085908000859080008FC
:1000600059080008590800085908000859080008EC
:1000700059080008590800085908000859080008DC
:1000800059080008590800085908000859080008CC
:1000900059080008590800085908000859080008BC
:1000A00059080008590800085908000859080008AC
:1000B000590800085908000859080008590800089C
:1000C000590800085908000859080008590800088C
:1000D00059080008E50700085908000859080008F1
:1000E000590800085908000859080008590800086C
:1000F000590800085908000859080008590800085C
:10010000590800085908000859080008590800084B
:10011000590800085908000859080008590800083B
:100120005908000859080008F50700085908000890
:10013000590800085908000859080008590800081B
:10014000590800085908000859080008590800080B
:1001500059080008590800085908000859080008FB
:1001600059080008590800085908000859080008EB
:100170005908000859080008590800080000000044
:1001800059080008590800085908000859080008CB
:1001900059080008590800085908000859080008BB
:0C01A000000000000000000059080008EA
:1001AC0010B5054C237833B9044B13B10448AFF3A5
:1001BC0000800123237010BD1000002000000000FF
:1001CC00D820000808B5034B1BB103490348AFF313
:1001DC00008008BD0000000014000020D82000089A
:1001EC0053B94AB9002908BF00281CBF4FF0FF3192
:1001FC004FF0FF3000F06AB9ADF1080C6DE904CE98
:10020C0000F006F8DDF804E0DDE9022304B07047E5
:10021C002DE9F047089D0C46002B4ED194468C4599
:10022C008646B2FA82F262D94AB1C2F120039140F9
:10023C0020FA03F30CFA02FC194300FA02FE4FEA0F
:10024C001C471FFA8CF6B1FBF7F44FEA1E4307FB71
:10025C00141143EA014304FB06F199420AD91CEB41
:10026C00030304F1FF3080F01281994240F20F81B8
:10027C00023C6344591A1FFA8EF3B1FBF7F007FBEB
:10028C00101143EA014300FB06F69E420AD91CEB0F
:10029C00030300F1FF3180F0FC809E4240F2F980B4
:1002AC00634402389B1B40EA044000211DB1D3403B
:1002BC000022C5E90032BDE8F0878B4205D90DB1AB
:1002CC00C5E9000100210846F5E7B3FA83F10029DE
:1002DC0046D1A34202D39042C0F0F080861A64EB60
:1002EC0003030120002DE6D0C5E90063E3E7002AF3
:1002FC0040F09080A1EB0C044FEA1C481FFA8CF7DD
:10030C000121B4FBF8F64FEA1E4308FB164443EAFE
:10031C00044307FB06F0984208D91CEB030306F1D3
:10032C00FF3402D2984200F2CD8026461C1A1FFAE6
:10033C008EF3B4FBF8F008FB104443EA044300FBD3
:10034C0007F79F4208D91CEB030300F1FF3402D2DC
:10035C009F4200F2B0802046DB1B40EA0640A5E736
:10036C00C1F120068B4022FA06F71F4320FA06FC47
:10037C0004FA01F343EA0C03F44000FA01F8380CD8
:10038C004FEA1349B4FBF0FE1FFA87FC00FB1E4436
:10039C0049EA04440EFB0CF9A14502FA01F20AD910
:1003AC003C190EF1FF3A80F08480A14540F2818027
:1003BC00AEF1020E3C44A4EB09041FFA83F9B4FB22
:1003CC00F0F300FB134449EA044403FB0CFCA44582
:1003DC0007D93C1903F1FF3067D2A44565D9023B1C
:1003EC003C4443EA0E40A0FB0293A4EB0C049C4259
:1003FC00CE469C4651D34ED055B1B8EB0E0364EBB0
:10040C000C0404FA06F6CB401E43CC40C5E900644C
:10041C00002150E7C2F1200320FA03F10CFA02FC90
:10042C0024FA03F394400C434FEA1C4800FA02FEF2
:10043C001FFA8CF7B3FBF8F008FB1031230C43EADE
:10044C00014300FB07F1994208D91CEB030300F1AF
:10045C00FF362CD299422AD9023863445B1AA4B2D3
:10046C00B3FBF8F108FB113344EA034401FB07F337
:10047C00A34208D91CEB040401F1FF3613D2A342AA
:10048C0011D902396444E41A41EA004139E70446BF
:10049C00F0E6084606E7C845AED2B9EB020E63EBB0
:1004AC00070C0138A8E73146EDE7034699E73046DB
:1004BC00D4E7D6467FE7634402384DE70646234629
:1004CC0008460FE7023E634430E700BF704700BFA9
:1004DC0082B0002100910B4B1A6B42F002021A639E
:1004EC001A6B02F002020092009A01911A6B42F010
:1004FC0080021A631B6B03F080030193019B02B013
:10050C00704700BF0038024000B583B00021019154
:10051C00094B1A6B42F480021A631B6B03F48003C1
:10052C000193019B0A463A2000F038FA3A2000F079
:10053C0045FA03B05DF804FB003802400268154B25
:10054C009A4200D0704714480378427843EA022359
:10055C00C3F30A0311490B808378D20842EA431291
:10056C00C2F30A024A80C2789B0943EA82030279E9
:10057C0043EA8223C3F30A038B804379520842EA8D
:10058C00C312C2F30A02CA809A090A72C3F3011396
:10059C004B72D7E7001001402C00002040000020D7
:1005AC0072B6FEE708B50B480B4B03600B4B436070
:1005BC004FF4805383600023C3604FF48062026168
:1005CC000C2242618361C36101F0D4F900B908BD0A
:1005DC00FFF7E6FFAC00002000100140A0860100F0
:1005EC0000B595B03022002108A801F0DCFC0023F6
:1005FC00039304930593069307930193224A116C7A
:10060C0041F080511164126C02F080520192019AF7
:10061C0002931E4A116841F440411160126802F4C1
:10062C0040420292029A0222089201210B9110215F
:10063C000C910E920F9308231093B42311931292E2
:10064C000423139308A800F079FDB0B900F038FD2D
:10065C00A8B90F23039302230493002305934FF4AB
:10066C00A05306934FF480530793052103A800F081
:10067C00B5FF30B915B05DF804FBFFF791FFFFF73C
:10068C008FFFFFF78DFF00BF003802400070004065
:10069C0008B500F003F9FFF7A3FFFFF719FFFFF709
:1006AC0033FFFFF77FFF12220449054801F068FC75
:1006BC0012220249024801F0FEFBF9E72C0000204F
:1006CC00AC00002082B0002100910B4B5A6C42F41C
:1006DC0080425A645A6C02F480420092009A019152
:1006EC001A6C42F080521A641B6C03F08053019315
:1006FC00019B02B0704700BF0038024030B589B092
:10070C00002303930493059306930793026803F164
:10071C00804303F588339A4201D009B030BD0446BA
:10072C000025019503F594335A6C42F010025A647B
:10073C005A6C02F010020192019A02951A6B42F067
:10074C0002021A631B6B03F002030293029BC02389
:10075C00039302230493032306930723079303A90C
:10076C00144800F0A7FB1448144B03604FF00063CF
:10077C0043608560C5604FF48063036145618561AA
:10078C004FF48073C3614FF400330362456200F091
:10079C00ABF958B9084BE3639C6300221146252042
:1007AC0000F0FCF8252000F009F9B6E7FFF7F8FE99
:1007BC00F0E700BF000402404C00002040640240FF
:1007CC00FEE7FEE7FEE7FEE7FEE77047704770477F
:1007DC0008B500F07DF808BD08B5024801F0B2F983
:1007EC0008BD00BFAC00002008B5024800F074FA48
:1007FC0008BD00BF4C00002070470000DFF834D06B
:10080C00FFF7FAFF0C480D490D4A002302E0D458BB
:10081C00C4500433C4188C42F9D30A4A0A4C00233E
:10082C0001E013600432A242FBD301F0C5FBFFF7D9
:10083C002FFF704700000320000000201000002054
:10084C00242100081000002090020020FEE7000088
:10085C0010B504460E4B1A784FF47A73B3FBF2F3CF
:10086C000C4A1068B0FBF3F000F0ACF868B90F2C30
:10087C0001D901200AE0002221464FF0FF3000F0A0
:10088C008DF8054B1C60002000E0012010BD00BF5E
:10089C0004000020000000200800002008B50B4BCD
:1008AC001A6842F400721A601A6842F480621A6084
:1008BC001A6842F480721A60032000F05DF80F2071
:1008CC00FFF7C6FFFFF7FEFE002008BD003C02400C
:1008DC00034A1168034B1B780B441360704700BF2D
:1008EC00F400002004000020014B1868704700BF82
:1008FC00F4000020002807DB00F01F024009012350
:10090C009340024A42F82030704700BF00E100E0FB
:10091C00002808DB0901C9B200F1604000F5614014
:10092C0080F80013704700F00F000901C9B2014BA9
:10093C001954704714ED00E000B500F00700C0F149
:10094C00070CBCF1040F28BF4FF0040C031D062B41
:10095C000FD9C31E4FF0FF3E0EFA0CF021EA000136
:10096C0099400EFA03FE22EA0E0241EA02005DF8FB
:10097C0004FB0023EEE70000074AD36823F4E0638E
:10098C001B041B0C000200F4E060034343F0BF6344
:10099C0043F40033D360704700ED00E010B504461B
:1009AC00054BD868C0F30220FFF7C6FF014620466E
:1009BC00FFF7AEFF10BD00BF00ED00E008B5FFF77C
:1009CC0099FF08BD0138B0F1807F0BD24FF0E023C6
:1009DC005861054AF02182F8231000209861072203
:1009EC001A6170470120704700ED00E030B40568D3
:1009FC002C6824F480242C60046863608368402B8A
:100A0C0005D0036899600368DA6030BC70470368EE
:100A1C009A600368D960F8E710B40368D9B210394A
:100A2C000B4AA2FB014212090A4CA25CC2655F2967
:100A3C0008D923F47F7323F0030304338365806D9B
:100A4C0010BC704723F47F7323F003038365F6E730
:100A5C00ABAAAAAA08210008836A826992B9012B61
:100A6C000AD0022B02D00BB100207047C36A13F0DE
:100A7C00807F28D100207047C36AB3F1C07F24D097
:100A8C0000207047B2F5005F09D0022B25D9032B4B
:100A9C0025D1C36A13F0807F23D100207047032B2C
:100AAC0003D8DFE803F01404140A00207047C36A6B
:100ABC0013F0807F0DD100207047C36AB3F1C07F63
:100ACC0009D0002070470120704701207047012099
:100ADC0070470120704701207047012070470020AB
:100AEC00704701207047000070B50446FFF7FCFE0C
:100AFC00002C5BD00546022384F83530002384F8A3
:100B0C0034302268136823F00103136023681A68D9
:100B1C0012F0010F0AD0FFF7E7FE431B052BF5D9A6
:100B2C0020236365032084F8350070BD1A682049C2
:100B3C0011406268A0680243E068024320690243E6
:100B4C0060690243A0690243E0690243206A0243E0
:100B5C000A43616A04291ED01A602668756925F05B
:100B6C000705636A1D43042B07D1A36A1D43E36A7F
:100B7C001BB12046FFF770FF90B975612046FFF757
:100B8C004BFFE26D3F23934083600020606501239F
:100B9C0084F83530C9E7E16A206B01430A43DBE78F
:100BAC0040236365012084F83500BEE70120BCE7D3
:100BBC003F8010F038B50446856D90F8340001285C
:100BCC002BD0012084F8340094F83500C0B20128F1
:100BDC0004D0002384F83430022038BD022084F87D
:100BEC003500002060652046FFF700FFE26D3F23D3
:100BFC009340AB602268136843F016031360236CB8
:100C0C0023B12268136843F0080313602268136849
:100C1C0043F0010313600020DFE70220DDE770B52D
:100C2C000446866DFFF760FE94F83530DBB2022B7C
:100C3C0006D080236365002384F83430012070BD16
:100C4C0005462268136823F0160313602268536963
:100C5C0023F080035361236CE3B12268136823F003
:100C6C00080313602268136823F0010313602368E0
:100C7C001B6813F0010F11D0FFF736FE431B052B39
:100C8C00F5D920236365032084F83500002384F80C
:100C9C003430D4E7A36C002BDFD1E3E7E26D3F23C4
:100CAC009340B360012384F83530002084F834007D
:100CBC00C5E790F83530DBB2022B03D080234365B7
:100CCC0001207047052380F835300268136823F043
:100CDC000103136000207047F0B583B00446002375
:100CEC000193724B1D68724BA3FB0535AD0A876DE2
:100CFC003E68C26D08239340334210D003681A68D3
:100D0C0012F0040F0BD01A6822F004021A60C26DA4
:100D1C0008239340BB60436D43F001034365E26DD0
:100D2C0001239340334209D02268526912F0800F9C
:100D3C0004D0BB60636D43F002036365E26D042372
:100D4C009340334209D02268126812F0020F04D08B
:100D5C00BB60636D43F004036365E26D1023934045
:100D6C00334224D02268126812F0080F1FD0BB60E7
:100D7C0023681A6812F4802F0DD01B6813F4002F0F
:100D8C0004D1236C9BB12046984710E0A36C73B13F
:100D9C00204698470BE01A6812F4807F03D11A683A
:100DAC0022F008021A60236C0BB120469847E26DC2
:100DBC0020239340334255D02268126812F0100F52
:100DCC0050D0BB6094F83530DBB2052B0ED02368C5
:100DDC001A6812F4802F33D01B6813F4002F2AD119
:100DEC00636C002B3ED0204698473BE0226813688A
:100DFC0023F0160313602268536923F080035361B8
:100E0C00236CA3B12268136823F008031360E26D0E
:100E1C003F239340BB60012384F83530002384F8D2
:100E2C003430236D002B3FD0204698473CE0A36C18
:100E3C00002BE7D1EBE7E36BA3B12046984711E019
:100E4C001A6812F4807F09D11A6822F010021A6015
:100E5C00012384F83530002384F83430E36B0BB174
:100E6C0020469847636DFBB1636D13F0010F17D0EB
:100E7C00052384F835302268136823F001031360CE
:100E8C00019B01330193AB4204D823681B6813F018
:100E9C00010FF5D1012384F83530002384F8343068
:100EAC00E36C0BB12046984703B0F0BD0000002066
:100EBC00B5814E1B00230F2B00F2F98030B583B0A7
:100ECC0069E085684FEA430E032404FA0EF425EA20
:100EDC000405CC6804FA0EF42C438460446824EABC
:100EEC0002044A68C2F300129A402243426060E056
:100EFC00DC08083450F8242003F00705AD004FF04F
:100F0C000F0E0EFA05FE22EA0E0E0A69AA4042EAFC
:100F1C000E0240F8242060E0092200E0002202FAD0
:100F2C000EF22A430234624D45F82420614A94683B
:100F3C006FEA0C0224EA0C05D1F804E01EF4801FC1
:100F4C0001D04CEA04055B4CA560E46802EA040598
:100F5C00D1F804E01EF4001F01D04CEA0405554CF6
:100F6C00E560646802EA0405D1F804E01EF4003F71
:100F7C0001D04CEA04054F4C6560246822404D6852
:100F8C0015F4803F01D04CEA04024A4C2260013334
:100F9C000F2B00F28A8001229A400C6804EA020CA2
:100FAC0032EA0404F3D14C6804F00304013C012C34
:100FBC0087D94A6802F00302032A09D0C4685D008D
:100FCC000322AA4024EA02048A68AA402243C2608F
:100FDC004A6802F00302022A8AD004684FEA430EE0
:100FEC00032202FA0EF224EA02044A6802F0030217
:100FFC0002FA0EF2224302604A6812F4403FC6D055
:10100C00002201922C4A546C44F480445464526C77
:10101C0002F480420192019A9C08A51C244A52F8C1
:10102C00255003F0030E4FEA8E0E0F2202FA0EF239
:10103C0025EA0205214A90423FF470AF02F5806226
:10104C00904222D002F58062904220D002F580625C
:10105C0090421ED002F5806290421CD002F5806254
:10106C0090421AD002F58062904218D002F580624C
:10107C00904216D002F58062904214D002F5806244
:10108C0090423FF449AF0A2249E7012247E7022286
:10109C0045E7032243E7042241E705223FE7062206
:1010AC003DE707223BE7082239E703B030BD704724
:1010BC0000380140003C0140003802400000024072
:1010CC0010B582B000230193194B1A6C42F0805278
:1010DC001A641B6C03F080530193019B154B012286
:1010EC001A64FFF701FC0446134B5B6813F4803F52
:1010FC0008D1FFF7F9FB001BB0F57A7FF4D9032078
:10110C0002B010BD0B4B01225A64FFF7EDFB0446F5
:10111C00094B5B6813F4003F07D1FFF7E5FB001B9D
:10112C00B0F57A7FF4D90320EAE70020E8E700BFA6
:10113C000038024000000E4200700040002800F011
:10114C00E08170B582B00446036813F0010F3BD008
:10115C009F4B9B6803F00C03042B2CD09C4B9B687F
:10116C0003F00C03082B21D06368B3F5803F4FD0FC
:10117C00B3F5A02F52D0964B1A6822F480321A6025
:10118C001A6822F480221A606368002B50D0FFF793
:10119C00ABFB05468E4B1B6813F4003F14D1FFF7D5
:1011AC00A3FB401B6428F5D90320B1E1884B5B6895
:1011BC0013F4800FD8D0864B1B6813F4003F03D078
:1011CC006368002B00F09F81236813F0020F54D04A
:1011DC007F4B9B6813F00C0F3ED07D4B9B6803F04C
:1011EC000C03082B33D0E368002B68D0794B012219
:1011FC001A60FFF779FB0546754B1B6813F0020F5D
:10120C0054D1FFF771FB401B0228F5D903207FE175
:10121C006F4A136843F480331360B5E76C4B1A685C
:10122C0042F480221A601A6842F480321A60ABE7EA
:10123C00FFF75AFB0546664B1B6813F4003FC3D0FF
:10124C00FFF752FB401B6428F5D9032060E1604B8B
:10125C005B6813F4800FC6D15D4B1B6813F0020F53
:10126C0003D0E368012B40F05081594A136823F0F6
:10127C00F803216943EAC1031360236813F0080FD4
:10128C0042D063696BB3534B0122C3F8802EFFF736
:10129C002BFB05464E4B5B6F13F0020F34D1FFF75F
:1012AC0023FB401B0228F5D9032031E1484A13687F
:1012BC0023F0F803216943EAC1031360DDE7454BD2
:1012CC0000221A60FFF710FB0546414B1B6813F018
:1012DC00020FD2D0FFF708FB401B0228F5D90320E0
:1012EC0016E13C4B0022C3F8802EFFF7FDFA0546B1
:1012FC00374B5B6F13F0020F06D0FFF7F5FA401B6C
:10130C000228F5D9032003E1236813F0040F77D0EA
:10131C002F4B1B6C13F0805F33D1002301932C4BAC
:10132C001A6C42F080521A641B6C03F080530193C8
:10133C00019B0125284B1B6813F4807F23D0A368E5
:10134C00012B34D0052B38D0214B1A6F22F001021F
:10135C001A671A6F22F004021A67A368002B3DD09B
:10136C00FFF7C2FA06461A4B1B6F13F0020F46D159
:10137C00FFF7BAFA801B41F288339842F3D9032065
:10138C00C6E00025D6E7144A136843F48073136053
:10139C00FFF7AAFA0646104B1B6813F4807FCED1D8
:1013AC00FFF7A2FA801B0228F5D90320B0E0084A07
:1013BC00136F43F001031367CFE7054B1A6F42F02D
:1013CC0004021A671A6F42F001021A67C5E700BFE0
:1013DC00003802400000474200700040FFF784FADA
:1013EC000646524B1B6F13F0020F08D0FFF77CFA26
:1013FC00801B41F288339842F3D9032088E0EDB981
:10140C00A369002B00F08380484A926802F00C021A
:10141C00082A51D0022B17D0454B00221A66FFF731
:10142C0063FA0446414B1B6813F0007F42D0FFF770
:10143C005BFA001B0228F5D9032069E03B4A136CC8
:10144C0023F080531364DBE7394B00221A66FFF755
:10145C004BFA0546354B1B6813F0007F06D0FFF79F
:10146C0043FA401B0228F5D9032051E0E369226AB4
:10147C001343626A43EA8213A26A5208013A43EAAE
:10148C000243E26A43EA0263284A5360284B012272
:10149C001A66FFF729FA0446244B1B6813F0007FE9
:1014AC0006D1FFF721FA001B0228F5D903202FE003
:1014BC0000202DE000202BE0012B2BD01B4B5B6878
:1014CC0003F48001E269914226D103F03F02216AC4
:1014DC008A4223D1616A47F6C0721A40B2EB811F6F
:1014EC001ED103F44031A26A5208013AB1EB024F0B
:1014FC0018D103F07063E26AB3EB026F14D10020D1
:10150C0006E001207047012002E0012000E00020ED
:10151C0002B070BD0120FBE70120F9E70120F7E7DD
:10152C000120F5E70120F3E70120F1E70038024044
:10153C000000474208B5264B9B6803F00C03042BB4
:10154C0041D0082B41D1224B5A6802F03F025B6814
:10155C0013F4800F12D01E4B5968C1F388111D482B
:10156C000023A1FB0001FEF73BFE194B5B68C3F3A4
:10157C00014301335B00B0FBF3F027E0144B5868D8
:10158C00C0F388104FEA401CBCEB000C6EEB0E0E47
:10159C004FEA8E1343EA9C634FEA8C11B1EB0C01BA
:1015AC0063EB0E03DB0043EA5173C90011EB000C33
:1015BC0043F10003990200234FEA8C2041EA9C512D
:1015CC00FEF70EFED1E7034800E0034808BD00BF5C
:1015DC000038024040787D010024F400002800F01F
:1015EC009B8070B50D4604464F4B1B6803F00F03F0
:1015FC008B4208D2CBB24C4A1370136803F00F0322
:10160C008B4240F08B80236813F0020F17D013F03D
:10161C00040F04D0454A936843F4E0539360236865
:10162C0013F0080F04D0414A936843F4604393606D
:10163C003E4A936823F0F003A1680B439360236840
:10164C0013F0010F32D06368012B21D09A1E012AAE
:10165C0025D9364A126812F0020F61D033498A68D4
:10166C0022F0030213438B60FFF73EF906462F4B23
:10167C009B6803F00C036268B3EB820F16D0FFF784
:10168C0033F9801B41F288339842F0D9032042E0B1
:10169C00264A126812F4003FE0D101203BE0234AB5
:1016AC00126812F0007FD9D1012034E01E4B1B6868
:1016BC0003F00F03AB4207D9EAB21B4B1A701B683D
:1016CC0003F00F03AB422DD1236813F0040F06D0A7
:1016DC00164A936823F4E053E1680B439360236844
:1016EC0013F0080F07D0114A936823F46043216963
:1016FC0043EAC1039360FFF71DFF0C4B9B68C3F3D8
:10170C0003130B4AD35CD8400A4B18600A4B186879
:10171C00FFF79EF8002070BD012070470120FAE70A
:10172C000120F8E70120F6E7003C024000380240B7
:10173C00F82000080000002008000020014B186869
:10174C00704700BF0000002008B5FFF7F7FF044BFF
:10175C009B68C3F38223034AD35CD84008BD00BF07
:10176C0000380240F020000808B5FFF7E7FF044BF3
:10177C009B68C3F34233034AD35CD84008BD00BF17
:10178C0000380240F0200008026802F10C0353E814
:10179C00003F23F0C0030C3242E800310029F3D1A2
:1017AC00202380F841307047026802F10C0353E8A3
:1017BC00003F23F490730C3242E800310029F3D13E
:1017CC00026802F1140353E8003F23F001031432C2
:1017DC0042E800310029F3D1036B012B05D0202303
:1017EC0080F84230002303637047026802F10C0357
:1017FC0053E8003F23F010030C3242E8003100297B
:10180C00F3D1ECE790F84130DBB2212B01D0022070
:10181C0070478368B3F5805F17D0036A5A1C026265
:10182C001A7803685A60C38C9BB2013B9BB2C38489
:10183C004BB90268D36823F08003D3600268D36885
:10184C0043F04003D360002070470369002BE4D1C0
:10185C00036A1B880268C3F308035360036A0233EC
:10186C000362E0E710B504460268136923F44053A1
:10187C00C1680B431361836802691A4343691A43B5
:10188C00C3691A430168CB6823F4164323F00C0395
:10189C001343CB600268536923F4407381690B4393
:1018AC0053610368314A934206D002F58062934239
:1018BC0002D0FFF749FF01E0FFF756FFE369B3F5EC
:1018CC00004F29D00021031849411B1841F1000198
:1018DC00C90041EA5371DB00181863684FEA8302B0
:1018EC004FEA937341F10001FEF77AFC204AA2FB08
:1018FC0000314909642303FB11031B013233A2FBA2
:10190C0003235B0903F0F00202EB011203F00F0357
:10191C00216813448B6010BD0023021843EB0301B4
:10192C00121841F10001C90041EA5271D20010189D
:10193C0041F10001626892185B41FEF751FC0C4AC0
:10194C00A2FB00314909642303FB1103DB00323392
:10195C00A2FB03235B095A0002F4F87202EB01129A
:10196C0003F00703216813448B60D4E70010014097
:10197C001F85EB5160B310B5044690F8413013B39A
:10198C00242384F841302268D36823F40053D360B5
:10199C002046FFF767FF2268136923F49043136115
:1019AC002268536923F02A0353612268D36843F4F5
:1019BC000053D36000206064202384F8413084F805
:1019CC004230606310BD80F84030FEF797FED7E7D9
:1019DC0001207047704708B50168CA6822F04002C0
:1019EC00CA60202280F84120FFF7F4FF002008BDD8
:1019FC007047704710B5846B23685A6994F841306E
:101A0C00DBB2212B10D023685A6902F0400294F803
:101A1C004230DBB2222B11D0636C43F010036364B1
:101A2C002046FFF7E6FF10BD02F08002002AEAD044
:101A3C000023E3842046FFF7A7FEE4E7002AEBD05F
:101A4C000023E3852046FFF7AFFEE5E708B5806B82
:101A5C000023C385C384FFF7CCFF08BD704790F803
:101A6C004230DBB2222B69D18368B3F5805F4FD053
:101A7C00826AB3F5805F04D0002B56D10369002B2A
:101A8C0053D103685B681370836A01338362C38D1F
:101A9C009BB2013B9BB2C385002B51D100B583B0E7
:101AAC000268D36823F02003D3600268D36823F460
:101ABC008073D3600268536923F0010353612023C0
:101ACC0080F8423000234363036B012B33D1002396
:101ADC000363026802F10C0353E8003F23F0100388
:101AEC000C3242E800310029F3D103681A6812F075
:101AFC00100F06D0002201921A6801925B680193C4
:101B0C00019B818DFFF7AAFF002003B05DF804FB59
:101B1C000269002AACD1826A03685B68C3F30803CC
:101B2C001380836A02338362B1E703685B6803F056
:101B3C007F031370A8E7FEF701FDE5E7022070476D
:101B4C000020704710B582B0044602681368D06854
:101B5C00516913F00F0F09D113F0200F0CD010F0B6
:101B6C00200F09D02046FFF77AFF16E011F0010193
:101B7C0015D110F4907F12D1216B012979D013F07B
:101B8C00800F03D010F0800F40F0148113F0400F41
:101B9C0003D010F0400F40F0118102B010BD13F0D3
:101BAC00010F06D010F4807F03D0626C42F001026A
:101BBC00626413F0040F04D019B1626C42F002029B
:101BCC00626413F0020F04D019B1626C42F004028B
:101BDC00626413F0080F07D010F0200F00D119B178
:101BEC00626C42F008026264626C002AD5D013F079
:101BFC00200F02D010F0200F29D123685B6903F06D
:101C0C004003626C12F0080F00D163B32046FFF75B
:101C1C00CBFD23685B6913F0400F20D0226802F1E2
:101C2C00140353E8003F23F04003143242E8003120
:101C3C000029F3D1E36B73B1624A1A65E06BFFF7CD
:101C4C0038F80028A9D0E06B036D9847A5E720462B
:101C5C00FFF705FFD1E72046FFF7CBFE9DE72046B7
:101C6C00FFF7C7FE99E72046FFF7C3FE0023636426
:101C7C0093E713F0100F82D010F0100F3FF47FAFEA
:101C8C00002301931368019353680193019B5369DB
:101C9C0013F0400F52D0E26B13685B689BB2002BC1
:101CAC003FF47BAFA18D99427FF677AFE385D36983
:101CBC00B3F5807F37D0226802F10C0353E8003F64
:101CCC0023F480730C3242E800310029F3D12268EE
:101CDC0002F1140353E8003F23F00103143242E8ED
:101CEC0000310029F3D1226802F1140353E8003FBC
:101CFC0023F04003143242E800310029F3D12023B1
:101D0C0084F8423000232363226802F10C0353E869
:101D1C00003F23F010030C3242E800310029F3D1CC
:101D2C00E06BFEF77CFF02236363A18DE38D9BB216
:101D3C00C91A89B22046FFF791FE2EE7A18DE38DDB
:101D4C009BB2C91A89B2E38D9BB2002B3FF425AF2D
:101D5C0000293FF422AF226802F10C0353E8003F44
:101D6C0023F490730C3242E800300028F3D122683F
:101D7C0002F1140353E8003F23F00103143242E84C
:101D8C0000300028F3D1202384F842300023236351
:101D9C00226802F10C0353E8003F23F010030C32CD
:101DAC0042E800300028F3D1022363632046FFF79A
:101DBC0055FEF2E62046FFF725FDEEE62046FFF73E
:101DCC000AFEEAE6591A000808B5806B0123436342
:101DDC00036B012B02D0FFF70BFE08BD818D490868
:101DEC00FFF73CFEF9E708B50346806B1B681B68E0
:101DFC0013F4807F2BD10023C385026802F10C03FE
:101E0C0053E8003F23F480730C3242E80031002980
:101E1C00F3D1026802F1140353E8003F23F00103ED
:101E2C00143242E800310029F3D1026802F11403A4
:101E3C0053E8003F23F04003143242E800310029FC
:101E4C00F3D1202380F84230036B012B07D0002301
:101E5C004363036B012B0FD0FEF770FB08BD0268C8
:101E6C0002F10C0353E8003F23F010030C3242E85C
:101E7C0000310029F3D1EAE7818DFFF7EFFDEDE7A3
:101E8C0081628285C28500234364222380F842301C
:101E9C00036923B10268D36843F48073D36002688A
:101EAC00536943F0010353610268D36843F0200384
:101EBC00D3600020704708B590F84230DBB2202B7D
:101ECC0008D149B10AB9012008BD00230363FFF70B
:101EDC00D7FFF9E70220F7E70120F5E730B583B02B
:101EEC00044613468162828500254564222280F8CF
:101EFC004220C26B1F48D063E26B1F481064E26B38
:101F0C001E48D064E26B156520680A46011DE06B23
:101F1C00FEF750FE019523681A6801925B680193E5
:101F2C00019B23695BB1226802F10C0353E8003F6B
:101F3C0043F480730C3242E800310029F3D122685B
:101F4C0002F1140353E8003F43F00103143242E85A
:101F5C0000310029F3D1226802F1140353E8003F49
:101F6C0043F04003143242E800310029F3D1002041
:101F7C0003B030BDF31D0008D51D0008011A000880
:101F8C0008B590F84230DBB2202B08D149B10AB920
:101F9C00012008BD00230363FFF7A0FFF9E702202F
:101FAC00F7E70120F5E702440346934200D170475E
:101FBC0003F8011BF9E7000070B50D4D0D4C641BC7
:101FCC00A4100026A64209D10B4D0C4C00F07EF853
:101FDC00641BA4100026A64205D170BD55F8043B25
:101FEC0098470136EEE755F8043B98470136F2E77F
:101FFC0018210008182100081821000820210008C9
:10200C0070477047024B13B1024800F005B8704797
:10201C000000000031200008002301461A46184633
:10202C0000F014B838B5074D074C641BA4101CB94C
:10203C00BDE8384000F050B8013C55F824309847C2
:10204C00F5E700BF20210008242100082DE9F04706
:10205C00DFF86CA00646DAF8000098460F46914669
:10206C00FFF7CEFF174B1C680CB9174C1C6065684A
:10207C00DAF800001F2D05DDFFF7C3FF4FF0FF302E
:10208C00BDE8F0879EB104EB85010122C1F8889070
:10209C00D4F88831AA401343C4F88831022EC1F811
:1020AC00088102BFD4F88C311343C4F88C316B1CFB
:1020BC000235636044F82570FFF7A3FF0020DFE7CB
:1020CC000C000020FC00002000010020F8B500BF2F
:1020DC00F8BC08BC9E467047F8B500BFF8BC08BCFD
:0420EC009E46704755
:1020F00000000000010203040000000000000000D6
:10210000010203040607080900061016000610164F
:082110000CE1FF7F010000005B
:0821180011200008D1010008AC
:04212000AD01000805
:102124000024F4000100000010000000F80000206A
:0400000508000809DE
:00000001FF
